{
  "_format": "hh-sol-artifact-1",
  "contractName": "TeleportrDeposit",
  "sourceName": "contracts/TeleportrDeposit.sol",
  "abi": [
    {
      "inputs": [
        {
          "internalType": "uint256",
          "name": "_maxDepositAmount",
          "type": "uint256"
        },
        {
          "internalType": "uint256",
          "name": "_minDepositAmount",
          "type": "uint256"
        },
        {
          "internalType": "uint256",
          "name": "_maxBalance",
          "type": "uint256"
        },
        {
          "internalType": "bool",
          "name": "_canReceiveDeposit",
          "type": "bool"
        },
        {
          "internalType": "address",
          "name": "_l2Depositor",
          "type": "address"
        },
        {
          "internalType": "address",
          "name": "_l1StandardBridge",
          "type": "address"
        }
      ],
      "stateMutability": "nonpayable",
      "type": "constructor"
    },
    {
      "anonymous": false,
      "inputs": [
        {
          "indexed": true,
          "internalType": "address",
          "name": "to",
          "type": "address"
        },
        {
          "indexed": false,
          "internalType": "uint256",
          "name": "amount",
          "type": "uint256"
        }
      ],
      "name": "BalanceBridged",
      "type": "event"
    },
    {
      "anonymous": false,
      "inputs": [
        {
          "indexed": true,
          "internalType": "address",
          "name": "to",
          "type": "address"
        },
        {
          "indexed": false,
          "internalType": "uint256",
          "name": "balance",
          "type": "uint256"
        }
      ],
      "name": "BalanceWithdrawn",
      "type": "event"
    },
    {
      "anonymous": false,
      "inputs": [
        {
          "indexed": false,
          "internalType": "bool",
          "name": "canReceiveDeposit",
          "type": "bool"
        }
      ],
      "name": "CanReceiveDepositSet",
      "type": "event"
    },
    {
      "anonymous": false,
      "inputs": [
        {
          "indexed": true,
          "internalType": "address",
          "name": "owner",
          "type": "address"
        },
        {
          "indexed": false,
          "internalType": "uint256",
          "name": "amount",
          "type": "uint256"
        }
      ],
      "name": "Destructed",
      "type": "event"
    },
    {
      "anonymous": false,
      "inputs": [
        {
          "indexed": true,
          "internalType": "address",
          "name": "emitter",
          "type": "address"
        },
        {
          "indexed": false,
          "internalType": "uint256",
          "name": "amount",
          "type": "uint256"
        }
      ],
      "name": "EtherReceived",
      "type": "event"
    },
    {
      "anonymous": false,
      "inputs": [
        {
          "indexed": false,
          "internalType": "address",
          "name": "previousAddress",
          "type": "address"
        },
        {
          "indexed": false,
          "internalType": "address",
          "name": "newAddress",
          "type": "address"
        }
      ],
      "name": "L1StandardBridgeSet",
      "type": "event"
    },
    {
      "anonymous": false,
      "inputs": [
        {
          "indexed": false,
          "internalType": "uint256",
          "name": "previousBalance",
          "type": "uint256"
        },
        {
          "indexed": false,
          "internalType": "uint256",
          "name": "newBalance",
          "type": "uint256"
        }
      ],
      "name": "MaxBalanceSet",
      "type": "event"
    },
    {
      "anonymous": false,
      "inputs": [
        {
          "indexed": false,
          "internalType": "uint256",
          "name": "previousAmount",
          "type": "uint256"
        },
        {
          "indexed": false,
          "internalType": "uint256",
          "name": "newAmount",
          "type": "uint256"
        }
      ],
      "name": "MaxDepositAmountSet",
      "type": "event"
    },
    {
      "anonymous": false,
      "inputs": [
        {
          "indexed": false,
          "internalType": "uint256",
          "name": "previousAmount",
          "type": "uint256"
        },
        {
          "indexed": false,
          "internalType": "uint256",
          "name": "newAmount",
          "type": "uint256"
        }
      ],
      "name": "MinDepositAmountSet",
      "type": "event"
    },
    {
      "anonymous": false,
      "inputs": [
        {
          "indexed": true,
          "internalType": "address",
          "name": "oldOwner",
          "type": "address"
        },
        {
          "indexed": true,
          "internalType": "address",
          "name": "newOwner",
          "type": "address"
        }
      ],
      "name": "OwnerSet",
      "type": "event"
    },
    {
      "anonymous": false,
      "inputs": [
        {
          "indexed": false,
          "internalType": "address",
          "name": "previousAddress",
          "type": "address"
        },
        {
          "indexed": false,
          "internalType": "address",
          "name": "newAddress",
          "type": "address"
        }
      ],
      "name": "l2DepositorSet",
      "type": "event"
    },
    {
      "inputs": [
        {
          "internalType": "uint32",
          "name": "_l2Gas",
          "type": "uint32"
        },
        {
          "internalType": "bytes",
          "name": "_data",
          "type": "bytes"
        }
      ],
      "name": "bridgeBalance",
      "outputs": [],
      "stateMutability": "nonpayable",
      "type": "function"
    },
    {
      "inputs": [],
      "name": "canReceiveDeposit",
      "outputs": [
        {
          "internalType": "bool",
          "name": "",
          "type": "bool"
        }
      ],
      "stateMutability": "view",
      "type": "function"
    },
    {
      "inputs": [],
      "name": "destroy",
      "outputs": [],
      "stateMutability": "nonpayable",
      "type": "function"
    },
    {
      "inputs": [],
      "name": "l1StandardBridge",
      "outputs": [
        {
          "internalType": "address",
          "name": "",
          "type": "address"
        }
      ],
      "stateMutability": "view",
      "type": "function"
    },
    {
      "inputs": [],
      "name": "l2Depositor",
      "outputs": [
        {
          "internalType": "address",
          "name": "",
          "type": "address"
        }
      ],
      "stateMutability": "view",
      "type": "function"
    },
    {
      "inputs": [],
      "name": "maxBalance",
      "outputs": [
        {
          "internalType": "uint256",
          "name": "",
          "type": "uint256"
        }
      ],
      "stateMutability": "view",
      "type": "function"
    },
    {
      "inputs": [],
      "name": "maxDepositAmount",
      "outputs": [
        {
          "internalType": "uint256",
          "name": "",
          "type": "uint256"
        }
      ],
      "stateMutability": "view",
      "type": "function"
    },
    {
      "inputs": [],
      "name": "minDepositAmount",
      "outputs": [
        {
          "internalType": "uint256",
          "name": "",
          "type": "uint256"
        }
      ],
      "stateMutability": "view",
      "type": "function"
    },
    {
      "inputs": [],
      "name": "owner",
      "outputs": [
        {
          "internalType": "address",
          "name": "",
          "type": "address"
        }
      ],
      "stateMutability": "view",
      "type": "function"
    },
    {
      "inputs": [
        {
          "internalType": "bool",
          "name": "_canReceiveDeposit",
          "type": "bool"
        }
      ],
      "name": "setCanReceiveDeposit",
      "outputs": [],
      "stateMutability": "nonpayable",
      "type": "function"
    },
    {
      "inputs": [
        {
          "internalType": "address",
          "name": "_bridge",
          "type": "address"
        }
      ],
      "name": "setL1StandardBridge",
      "outputs": [],
      "stateMutability": "nonpayable",
      "type": "function"
    },
    {
      "inputs": [
        {
          "internalType": "address",
          "name": "_depositor",
          "type": "address"
        }
      ],
      "name": "setL2Depositor",
      "outputs": [],
      "stateMutability": "nonpayable",
      "type": "function"
    },
    {
      "inputs": [
        {
          "internalType": "uint256",
          "name": "_maxDepositAmount",
          "type": "uint256"
        }
      ],
      "name": "setMaxAmount",
      "outputs": [],
      "stateMutability": "nonpayable",
      "type": "function"
    },
    {
      "inputs": [
        {
          "internalType": "uint256",
          "name": "_maxBalance",
          "type": "uint256"
        }
      ],
      "name": "setMaxBalance",
      "outputs": [],
      "stateMutability": "nonpayable",
      "type": "function"
    },
    {
      "inputs": [
        {
          "internalType": "uint256",
          "name": "_minDepositAmount",
          "type": "uint256"
        }
      ],
      "name": "setMinAmount",
      "outputs": [],
      "stateMutability": "nonpayable",
      "type": "function"
    },
    {
      "inputs": [
        {
          "internalType": "address",
          "name": "_newOwner",
          "type": "address"
        }
      ],
      "name": "setOwner",
      "outputs": [],
      "stateMutability": "nonpayable",
      "type": "function"
    },
    {
      "inputs": [],
      "name": "withdrawBalance",
      "outputs": [],
      "stateMutability": "nonpayable",
      "type": "function"
    },
    {
      "inputs": [
        {
          "internalType": "address payable",
          "name": "_to",
          "type": "address"
        }
      ],
      "name": "withdrawBalanceTo",
      "outputs": [],
      "stateMutability": "nonpayable",
      "type": "function"
    },
    {
      "stateMutability": "payable",
      "type": "receive"
    }
  ],
  "bytecode": "0x608060405234801561001057600080fd5b50604051620020c0380380620020c0833981810160405260c081101561003557600080fd5b810190808051906020019092919080519060200190929190805190602001909291908051906020019092919080519060200190929190805190602001909291905050508486116100d1576040517f08c379a000000000000000000000000000000000000000000000000000000000815260040180806020018281038252603a81526020018062002086603a913960400191505060405180910390fd5b600073ffffffffffffffffffffffffffffffffffffffff168273ffffffffffffffffffffffffffffffffffffffff161415610158576040517f08c379a00000000000000000000000000000000000000000000000000000000081526004018080602001828103825260278152602001806200205f6027913960400191505060405180910390fd5b600073ffffffffffffffffffffffffffffffffffffffff168173ffffffffffffffffffffffffffffffffffffffff1614156101df576040517f08c379a000000000000000000000000000000000000000000000000000000000815260040180806020018281038252602d81526020018062002032602d913960400191505060405180910390fd5b336000806101000a81548173ffffffffffffffffffffffffffffffffffffffff021916908373ffffffffffffffffffffffffffffffffffffffff16021790555085600381905550846004819055508360058190555082600660006101000a81548160ff02191690831515021790555081600160006101000a81548173ffffffffffffffffffffffffffffffffffffffff021916908373ffffffffffffffffffffffffffffffffffffffff16021790555080600260006101000a81548173ffffffffffffffffffffffffffffffffffffffff021916908373ffffffffffffffffffffffffffffffffffffffff1602179055503373ffffffffffffffffffffffffffffffffffffffff16600073ffffffffffffffffffffffffffffffffffffffff167f342827c97908e5e2f71151c08502a66d44b6f758e3ac2f1de95f02eb95f0a73560405160405180910390a37fb1e6cc560df1786578fd4d1fe6e046f089a0c3be401e999b51a5112437911797600087604051808381526020018281526020019250505060405180910390a17f65779d3ca560e9bdec52d08ed75431a84df87cb7796f0e51965f6efc0f556c0f600086604051808381526020018281526020019250505060405180910390a17f185c6391e7218e85de8a9346fc72024a0f88e1f04c186e6351230b93976ad50b600085604051808381526020018281526020019250505060405180910390a17ffc993c692fc5c68e7202d0f3ade6a43363a2098f53b68de9b7b0dc1d96ad0c858360405180821515815260200191505060405180910390a17fc7484718c2929b9bdf4764e203b238de2c2f84e6ac7914e2e6c46f443eff5ef7600083604051808373ffffffffffffffffffffffffffffffffffffffff1681526020018273ffffffffffffffffffffffffffffffffffffffff1681526020019250505060405180910390a17f40918594f64ded2750aa7244601a6df41ce9e2ffc0a6f7b6d446ab2c4200ac30600082604051808373ffffffffffffffffffffffffffffffffffffffff1681526020018273ffffffffffffffffffffffffffffffffffffffff1681526020019250505060405180910390a1505050505050611b2080620005126000396000f3fe60806040526004361061010d5760003560e01c806383197ef0116100955780638ed83271116100645780638ed83271146105915780639d51d9b7146105bc578063bab9ab3c146105f7578063baf5b2bf14610634578063bb7ea019146106ca576102af565b806383197ef0146104bd578063897b0637146104d45780638da5cb5b1461050f5780638e9ae8c414610550576102af565b80634fe47f70116100dc5780634fe47f70146103c45780635fd8c710146103ff578063645006ca146104165780636f6552071461044157806373ad468a14610492576102af565b8063078f29cf146102b457806313af4035146102f55780631a627513146103465780633995714414610373576102af565b366102af57600354341115801561012657506004543410155b610198576040517f08c379a00000000000000000000000000000000000000000000000000000000081526004018080602001828103825260148152602001807f57726f6e67206465706f73697420616d6f756e7400000000000000000000000081525060200191505060405180910390fd5b60011515600660009054906101000a900460ff16151514610204576040517f08c379a0000000000000000000000000000000000000000000000000000000008152600401808060200182810382526028815260200180611a146028913960400191505060405180910390fd5b60055447111561025f576040517f08c379a00000000000000000000000000000000000000000000000000000000081526004018080602001828103825260288152602001806119bf6028913960400191505060405180910390fd5b3373ffffffffffffffffffffffffffffffffffffffff167f1e57e3bb474320be3d2c77138f75b7c3941292d647f5f9634e33a8e94e0e069b346040518082815260200191505060405180910390a2005b600080fd5b3480156102c057600080fd5b506102c961071b565b604051808273ffffffffffffffffffffffffffffffffffffffff16815260200191505060405180910390f35b34801561030157600080fd5b506103446004803603602081101561031857600080fd5b81019080803573ffffffffffffffffffffffffffffffffffffffff169060200190929190505050610741565b005b34801561035257600080fd5b5061035b6108bf565b60405180821515815260200191505060405180910390f35b34801561037f57600080fd5b506103c26004803603602081101561039657600080fd5b81019080803573ffffffffffffffffffffffffffffffffffffffff1690602001909291905050506108d2565b005b3480156103d057600080fd5b506103fd600480360360208110156103e757600080fd5b8101908080359060200190929190505050610aea565b005b34801561040b57600080fd5b50610414610c50565b005b34801561042257600080fd5b5061042b610d3c565b6040518082815260200191505060405180910390f35b34801561044d57600080fd5b506104906004803603602081101561046457600080fd5b81019080803573ffffffffffffffffffffffffffffffffffffffff169060200190929190505050610d42565b005b34801561049e57600080fd5b506104a7610e95565b6040518082815260200191505060405180910390f35b3480156104c957600080fd5b506104d2610e9b565b005b3480156104e057600080fd5b5061050d600480360360208110156104f757600080fd5b8101908080359060200190929190505050611003565b005b34801561051b57600080fd5b50610524611169565b604051808273ffffffffffffffffffffffffffffffffffffffff16815260200191505060405180910390f35b34801561055c57600080fd5b5061056561118d565b604051808273ffffffffffffffffffffffffffffffffffffffff16815260200191505060405180910390f35b34801561059d57600080fd5b506105a66111b3565b6040518082815260200191505060405180910390f35b3480156105c857600080fd5b506105f5600480360360208110156105df57600080fd5b81019080803590602001909291905050506111b9565b005b34801561060357600080fd5b506106326004803603602081101561061a57600080fd5b810190808035151590602001909291905050506112c5565b005b34801561064057600080fd5b506106c86004803603604081101561065757600080fd5b81019080803563ffffffff1690602001909291908035906020019064010000000081111561068457600080fd5b82018360208201111561069657600080fd5b803590602001918460018302840111640100000000831117156106b857600080fd5b90919293919293905050506113dc565b005b3480156106d657600080fd5b50610719600480360360208110156106ed57600080fd5b81019080803573ffffffffffffffffffffffffffffffffffffffff169060200190929190505050611708565b005b600260009054906101000a900473ffffffffffffffffffffffffffffffffffffffff1681565b60008054906101000a900473ffffffffffffffffffffffffffffffffffffffff1673ffffffffffffffffffffffffffffffffffffffff163373ffffffffffffffffffffffffffffffffffffffff1614610802576040517f08c379a00000000000000000000000000000000000000000000000000000000081526004018080602001828103825260138152602001807f43616c6c6572206973206e6f74206f776e65720000000000000000000000000081525060200191505060405180910390fd5b8073ffffffffffffffffffffffffffffffffffffffff1660008054906101000a900473ffffffffffffffffffffffffffffffffffffffff1673ffffffffffffffffffffffffffffffffffffffff167f342827c97908e5e2f71151c08502a66d44b6f758e3ac2f1de95f02eb95f0a73560405160405180910390a3806000806101000a81548173ffffffffffffffffffffffffffffffffffffffff021916908373ffffffffffffffffffffffffffffffffffffffff16021790555050565b600660009054906101000a900460ff1681565b60008054906101000a900473ffffffffffffffffffffffffffffffffffffffff1673ffffffffffffffffffffffffffffffffffffffff163373ffffffffffffffffffffffffffffffffffffffff1614610993576040517f08c379a00000000000000000000000000000000000000000000000000000000081526004018080602001828103825260138152602001807f43616c6c6572206973206e6f74206f776e65720000000000000000000000000081525060200191505060405180910390fd5b600073ffffffffffffffffffffffffffffffffffffffff168173ffffffffffffffffffffffffffffffffffffffff161415610a19576040517f08c379a0000000000000000000000000000000000000000000000000000000008152600401808060200182810382526027815260200180611a3c6027913960400191505060405180910390fd5b7fc7484718c2929b9bdf4764e203b238de2c2f84e6ac7914e2e6c46f443eff5ef7600160009054906101000a900473ffffffffffffffffffffffffffffffffffffffff1682604051808373ffffffffffffffffffffffffffffffffffffffff1681526020018273ffffffffffffffffffffffffffffffffffffffff1681526020019250505060405180910390a180600160006101000a81548173ffffffffffffffffffffffffffffffffffffffff021916908373ffffffffffffffffffffffffffffffffffffffff16021790555050565b60008054906101000a900473ffffffffffffffffffffffffffffffffffffffff1673ffffffffffffffffffffffffffffffffffffffff163373ffffffffffffffffffffffffffffffffffffffff1614610bab576040517f08c379a00000000000000000000000000000000000000000000000000000000081526004018080602001828103825260138152602001807f43616c6c6572206973206e6f74206f776e65720000000000000000000000000081525060200191505060405180910390fd5b6004548111610c05576040517f08c379a000000000000000000000000000000000000000000000000000000000815260040180806020018281038252603a815260200180611a63603a913960400191505060405180910390fd5b7fb1e6cc560df1786578fd4d1fe6e046f089a0c3be401e999b51a511243791179760035482604051808381526020018281526020019250505060405180910390a18060038190555050565b60008054906101000a900473ffffffffffffffffffffffffffffffffffffffff1673ffffffffffffffffffffffffffffffffffffffff163373ffffffffffffffffffffffffffffffffffffffff1614610d11576040517f08c379a00000000000000000000000000000000000000000000000000000000081526004018080602001828103825260138152602001807f43616c6c6572206973206e6f74206f776e65720000000000000000000000000081525060200191505060405180910390fd5b610d3a60008054906101000a900473ffffffffffffffffffffffffffffffffffffffff16611920565b565b60045481565b60008054906101000a900473ffffffffffffffffffffffffffffffffffffffff1673ffffffffffffffffffffffffffffffffffffffff163373ffffffffffffffffffffffffffffffffffffffff1614610e03576040517f08c379a00000000000000000000000000000000000000000000000000000000081526004018080602001828103825260138152602001807f43616c6c6572206973206e6f74206f776e65720000000000000000000000000081525060200191505060405180910390fd5b600073ffffffffffffffffffffffffffffffffffffffff168173ffffffffffffffffffffffffffffffffffffffff161415610e89576040517f08c379a0000000000000000000000000000000000000000000000000000000008152600401808060200182810382526022815260200180611a9d6022913960400191505060405180910390fd5b610e9281611920565b50565b60055481565b60008054906101000a900473ffffffffffffffffffffffffffffffffffffffff1673ffffffffffffffffffffffffffffffffffffffff163373ffffffffffffffffffffffffffffffffffffffff1614610f5c576040517f08c379a00000000000000000000000000000000000000000000000000000000081526004018080602001828103825260138152602001807f43616c6c6572206973206e6f74206f776e65720000000000000000000000000081525060200191505060405180910390fd5b60008054906101000a900473ffffffffffffffffffffffffffffffffffffffff1673ffffffffffffffffffffffffffffffffffffffff167fbd1c75e440fb43852a36427eb38a9a7ff9351f4fa3c02e49de0fe9ece002a801476040518082815260200191505060405180910390a260008054906101000a900473ffffffffffffffffffffffffffffffffffffffff1673ffffffffffffffffffffffffffffffffffffffff16ff5b60008054906101000a900473ffffffffffffffffffffffffffffffffffffffff1673ffffffffffffffffffffffffffffffffffffffff163373ffffffffffffffffffffffffffffffffffffffff16146110c4576040517f08c379a00000000000000000000000000000000000000000000000000000000081526004018080602001828103825260138152602001807f43616c6c6572206973206e6f74206f776e65720000000000000000000000000081525060200191505060405180910390fd5b806003541161111e576040517f08c379a000000000000000000000000000000000000000000000000000000000815260040180806020018281038252603a815260200180611a63603a913960400191505060405180910390fd5b7f65779d3ca560e9bdec52d08ed75431a84df87cb7796f0e51965f6efc0f556c0f60045482604051808381526020018281526020019250505060405180910390a18060048190555050565b60008054906101000a900473ffffffffffffffffffffffffffffffffffffffff1681565b600160009054906101000a900473ffffffffffffffffffffffffffffffffffffffff1681565b60035481565b60008054906101000a900473ffffffffffffffffffffffffffffffffffffffff1673ffffffffffffffffffffffffffffffffffffffff163373ffffffffffffffffffffffffffffffffffffffff161461127a576040517f08c379a00000000000000000000000000000000000000000000000000000000081526004018080602001828103825260138152602001807f43616c6c6572206973206e6f74206f776e65720000000000000000000000000081525060200191505060405180910390fd5b7f185c6391e7218e85de8a9346fc72024a0f88e1f04c186e6351230b93976ad50b60055482604051808381526020018281526020019250505060405180910390a18060058190555050565b60008054906101000a900473ffffffffffffffffffffffffffffffffffffffff1673ffffffffffffffffffffffffffffffffffffffff163373ffffffffffffffffffffffffffffffffffffffff1614611386576040517f08c379a00000000000000000000000000000000000000000000000000000000081526004018080602001828103825260138152602001807f43616c6c6572206973206e6f74206f776e65720000000000000000000000000081525060200191505060405180910390fd5b7ffc993c692fc5c68e7202d0f3ade6a43363a2098f53b68de9b7b0dc1d96ad0c858160405180821515815260200191505060405180910390a180600660006101000a81548160ff02191690831515021790555050565b60004790506000811161143a576040517f08c379a000000000000000000000000000000000000000000000000000000000815260040180806020018281038252602c815260200180611abf602c913960400191505060405180910390fd5b600073ffffffffffffffffffffffffffffffffffffffff16600160009054906101000a900473ffffffffffffffffffffffffffffffffffffffff1673ffffffffffffffffffffffffffffffffffffffff1614156114e2576040517f08c379a0000000000000000000000000000000000000000000000000000000008152600401808060200182810382526027815260200180611a3c6027913960400191505060405180910390fd5b600073ffffffffffffffffffffffffffffffffffffffff16600260009054906101000a900473ffffffffffffffffffffffffffffffffffffffff1673ffffffffffffffffffffffffffffffffffffffff16141561158a576040517f08c379a000000000000000000000000000000000000000000000000000000000815260040180806020018281038252602d8152602001806119e7602d913960400191505060405180910390fd5b600260009054906101000a900473ffffffffffffffffffffffffffffffffffffffff1673ffffffffffffffffffffffffffffffffffffffff16639a2ac6d582600160009054906101000a900473ffffffffffffffffffffffffffffffffffffffff168787876040518663ffffffff1660e01b8152600401808573ffffffffffffffffffffffffffffffffffffffff1681526020018463ffffffff168152602001806020018281038252848482818152602001925080828437600081840152601f19601f820116905080830192505050955050505050506000604051808303818588803b15801561167957600080fd5b505af115801561168d573d6000803e3d6000fd5b5050505050600160009054906101000a900473ffffffffffffffffffffffffffffffffffffffff1673ffffffffffffffffffffffffffffffffffffffff167fd1d15e81e74b068b455b06d0c7428782e7c2a1d3e1643b8dce672cb886c08e84826040518082815260200191505060405180910390a250505050565b60008054906101000a900473ffffffffffffffffffffffffffffffffffffffff1673ffffffffffffffffffffffffffffffffffffffff163373ffffffffffffffffffffffffffffffffffffffff16146117c9576040517f08c379a00000000000000000000000000000000000000000000000000000000081526004018080602001828103825260138152602001807f43616c6c6572206973206e6f74206f776e65720000000000000000000000000081525060200191505060405180910390fd5b600073ffffffffffffffffffffffffffffffffffffffff168173ffffffffffffffffffffffffffffffffffffffff16141561184f576040517f08c379a000000000000000000000000000000000000000000000000000000000815260040180806020018281038252602d8152602001806119e7602d913960400191505060405180910390fd5b7f40918594f64ded2750aa7244601a6df41ce9e2ffc0a6f7b6d446ab2c4200ac30600260009054906101000a900473ffffffffffffffffffffffffffffffffffffffff1682604051808373ffffffffffffffffffffffffffffffffffffffff1681526020018273ffffffffffffffffffffffffffffffffffffffff1681526020019250505060405180910390a180600260006101000a81548173ffffffffffffffffffffffffffffffffffffffff021916908373ffffffffffffffffffffffffffffffffffffffff16021790555050565b60004790508173ffffffffffffffffffffffffffffffffffffffff166108fc829081150290604051600060405180830381858888f1935050505015801561196b573d6000803e3d6000fd5b508173ffffffffffffffffffffffffffffffffffffffff167fddc398b321237a8d40ac914388309c2f52a08c134e4dc4ce61e32f57cb7d80f1826040518082815260200191505060405180910390a2505056fe436f6e7472616374207265616368656420746865206d61782062616c616e636520616c6c6f7765644c31207374616e646172642062726964676520616464726573732073686f756c64206e6f74206265206e756c6c436f6e7472616374206973206e6f7420616c6c6f77656420746f20726563656976652065746865724c32206465706f7369746f7220616464726573732073686f756c64206e6f74206265206e756c6c6d61784465706f73697420616d6f756e742073686f756c642062652067726561746572207468616e206d696e4465706f73697420616d6f756e7444657374696e6174696f6e20616464726573732063616e6e6f74206265206e756c6c436f6e74726163742062616c616e63652073686f756c642062652067726561746572207468616e207a65726fa264697066735822122056b33bee9c532eb470f8aa6a531aac2610d63902855e76b8ca16a828e94a2c6c64736f6c634300070300334c31207374616e646172642062726964676520616464726573732073686f756c64206e6f74206265206e756c6c4c32206465706f7369746f7220616464726573732073686f756c64206e6f74206265206e756c6c6d61784465706f73697420616d6f756e742073686f756c642062652067726561746572207468616e206d696e4465706f73697420616d6f756e74",
  "linkReferences": {},
  "deployedLinkReferences": {}
}